:100000000C945E000C9486000C9486000C94860080
:100010000C9486000C9486000C9486000C94860048
:100020000C9486000C9486000C9486000C94A10B12
:100030000C9486000C9486000C9486000C94860028
:100040000C94B8110C9486000C94240E0C94670E3A
:100050000C9486000C9486000C9486000C94860008
:100060000C9486000C94860000000007000201003A
:100070000003040600000000000000000102040864
:100080001020408001020408102001020408102002
:10009000040404040404040402020202020203032E
:1000A0000303030300000000250028002B000000CC
:1000B0000000240027002A00960A260F11241FBEE4
:1000C000CFEFD8E0DEBFCDBF12E0A0E0B1E0EEE1BF
:1000D000F8E202C005900D92AA3BB107D9F726E0DD
:1000E000AAEBB2E001C01D92AB39B207E1F710E014
:1000F000CEE5D0E004C02197FE010E94EF13CC357D
:10010000D107C9F70E94AB110C940D140C94000098
:10011000DC01FB0112968C911297808313968C91CF
:100120001397818314968C911497828315968C91E2
:100130001597838316968C911697848317968C91C6
:100140001797858318968C911897868319968C91AA
:10015000878388E090E00895FC01DB014C9150E03A
:1001600060E070E0428353836483758311968C91C1
:100170001197582B428353836483758312968C9115
:100180001297682B428353836483758313968C91F3
:100190001397782B428353836483758314964C9111
:1001A000149750E060E070E0468357836087718762
:1001B00015968C911597582B4683578360877187C6
:1001C00016968C911697682B4683578360877187A4
:1001D00017968C91782B468357836087718788E0C8
:1001E00090E0089586E091E0089584E191E008951B
:1001F00085E391E008958EE491E008958FE691E023
:10020000089582E891E008958EE892E0089583EAE7
:1002100091E00895FC012281FB012083FC01838190
:10022000FB01818382E090E00895FB01208130E0B2
:10023000FC0133832283FB014181342BFC01338396
:10024000228382E090E0089584EC91E0089584EDAB
:1002500091E008950F931F93CF93DF938C01EC01EE
:100260002696CE010E941501D8011A96ED91FC91B7
:100270001B97CE010995DF91CF911F910F910895A2
:10028000FC0184859585089584EC91E0089584EDC2
:1002900091E008958A549D4FFC0180810895FC01EE
:1002A0006281738189ED92E00E94370D0895FC010F
:1002B0006281738186ED92E00E94370D0895A5E07A
:1002C000B0E0E5E6F1E00C94B013643671053CF063
:1002D000FC01EA54FD4F2081222309F46FC0DA01AA
:1002E0007B018C01BC01695C7E4FED91FC9101901A
:1002F000F081E02DCA010995B801605D7E4F2FEFB6
:10030000DB012C93F801EF5CFE4F2EEF208331963A
:100310008083319690833196292F280F2095208352
:100320003196E0821696FC9245E050E020E030E005
:100330007C01B6E0EB0EF11CE416F50634F0A19159
:100340002A0F311D4F5F5F4FF7CF7C01E8E0EE0EC3
:10035000F11C800F911FFC01E95CFE4F209520836A
:10036000F9E1EF16F1E0FF067CF4D80112968D91C9
:100370009C911397DC01ED91FC910280F381E02DBB
:10038000A7010995C7011CC088E592E09A8389837B
:1003900083E08B8385EF91E09D838C83D801ED9181
:1003A000FC910190F081E02DAE014F5F5F4F67E05F
:1003B00070E0C80109958FEF9FEF02C080E090E0E8
:1003C0002596E6E00C94CC134091E0025091E102B6
:1003D0006091E2027091E3028091DE029091DF026F
:1003E0000E94A20E109289051092880510928B052A
:1003F00010928A0510928F0510928E0510928D052D
:1004000010928C05A6E5B5E0FD0180E090E0219119
:100410003191232B81F4FC01EE0FFF1FEA5AFA4FB2
:1004200028EC32E0318320838C599F4F9093CB028C
:100430008093CA0204C001968931910541F780E09A
:1004400090E02D913D91232B81F4FC01EE0FFF1FD5
:10045000EA5AFA4F2AEB32E0318320838C599F4FBE
:100460009093BD028093BC0204C00196893191052E
:1004700041F769E070E089ED92E00E94FA0C66E0D5
:1004800070E086ED92E00E94FA0C0895CF92DF9220
:10049000EF92FF9220E030E06A017B01022E04C05F
:1004A000F694E794D794C7940A94D2F7FC01C192CA
:1004B000CF01285F3F4F2032310571F7FF90EF9059
:1004C000DF90CF9008954F925F926F927F92AF929C
:1004D000BF92CF92DF92EF92FF920F931F93CF9331
:1004E000DF93EC018B018A81FB0180838B81818307
:1004F0008C8182838D818383DB0140E050E0BA01EF
:10050000E4E0F0E01496CA80DB80EC80FD80CF014F
:1005100004964C155D056E057F05C8F42A853B855C
:10052000E20FF31F3497D080F18032812381DC9277
:100530001196FC92119712963C93129713962C9356
:100540001397FC014F5F5F4F6F4F7F4FDBCF5F0112
:10055000A00EB11E2C85F50120832D8521832E85CB
:1005600022832F852383D50140E050E0BA01CC845B
:10057000DD84EE84FF849C012C5F3F4F4C155D05AC
:100580006E057F05F8F4CD018A199B09EC88FD887A
:100590008E0D9F1DFC01D080E180F2808381149636
:1005A000DC9214971596EC9215971696FC92169776
:1005B00017968C931797C9014F5F5F4F6F4F7F4F0F
:1005C0001496D5CFF801E80FF91F8E8980838F89A3
:1005D0008183888D8283898D83837901A12CB12CBD
:1005E000412C512C32018E899F89A88DB98D4816D6
:1005F00059066A067B0680F5EC8DFD8DEA0DFB1D24
:10060000A081B181FD0101900020E9F731976F01D0
:10061000CA1ADB0AA60160E070E0C8018E0D9F1DBA
:100620000E944602F4E0EF0EF11CEC8DFD8DEA0D08
:10063000FB1D60817181A601C8018E0D9F1D0E9466
:100640000414EC0CFD1C8FEF481A580A680A780A4B
:10065000E2E0AE0EB11CC7CFC701DF91CF911F9171
:100660000F91FF90EF90DF90CF90BF90AF907F9071
:100670006F905F904F900895EF92FF920F931F93AA
:10068000CF93DF938C017B01DC0112962C911297A2
:10069000FB012193CF011396ED91FC911497EF018B
:1006A00009900020E9F72197CE1BDF0BAE0160E037
:1006B00070E00E944602D80113966D917C911497C8
:1006C000AE01C70105960E940414CE010596CDB770
:1006D000DEB7E6E00C94CC13A0E0B0E0E2E7F3E094
:1006E0000C94AE137C018B01DC0112968C91129755
:1006F000FB01808313968C91139781831496ED915F
:10070000FC911597EF0109900020E9F72197CE1B86
:10071000DF0BAE0160E070E0C80102960E94460265
:10072000D70114966D917C911597AE01C80106967C
:100730000E940414CE010696F701A681B781FD013F
:1007400001900020E9F731976F01CA1ADB0AA60170
:1007500060E070E0800F911F0E9446022A96D70148
:1007600016966D917C911797A601C8018C0F9D1F5D
:100770000E940414CC0DDD1DD7011896ED91FC915B
:100780001997DF010D900020E9F711976D01CE1A3E
:10079000DF0AA60160E070E0C8018C0F9D1F0E9477
:1007A00046022496F70160857185A601C8018C0F69
:1007B0009D1F0E940414C6018C0F9D1FD7011A961D
:1007C0006C911A971B964C911B971C963C911C9709
:1007D0001D962C91F801E80FF91F60834183328345
:1007E00023830496CDB7DEB7E8E00C94CA13CF920A
:1007F000DF92EF92FF92FC0110821182128213822B
:10080000DB0120E030E04D9150E0022E02C0440FA9
:10081000551F0A94E2F7052E000C660B770BC0807B
:10082000D180E280F3804C295D296E297F294083A5
:10083000518362837383285F3F4F2032310519F75C
:10084000FF90EF90DF90CF9008954F925F926F925C
:100850007F928F929F92AF92BF92EF92FF920F93EF
:100860001F93CF93DF9300D000D0CDB7DEB77C01CC
:100870008B01FB018191BF01F7018283CE010196BB
:100880000E94F70389819A81AB81BC814C015D0193
:10089000F5E08F0E911CA11CB11CA8014C5F5F4FAD
:1008A000FA0125E030E02901612C712C481459042B
:1008B0006A047B0428F4618161932F5F3F4FF3CF7B
:1008C000F801E80FF91F1482F7015483438305965A
:1008D0000F900F900F900F90DF91CF911F910F917C
:1008E000FF90EF90BF90AF909F908F907F906F9010
:1008F0005F904F900895ACE0B0E0E1E8F4E00C9434
:10090000A6137C018B01DB018C9190E0F7019383AE
:10091000828311962C91922B938382836E5F7F4FFB
:10092000CE0109960E94F70389849A84AB84BC8423
:1009300024013501F6E04F0E511C611C711C980119
:100940002B5F3F4FF90186E090E0AC0160E070E082
:10095000441555056605770520F4418141930196BC
:10096000F4CFF801E80DF91D1582D70115963C93D7
:100970002E931497B4016A5F7F4F600F711FCE01F1
:1009800005960E94F703BAE08B0E911C4D805E80A5
:100990006F807884A401092C000C660B770B440D42
:1009A000551D661D771DD801A80DB91DCD01801BF1
:1009B000910B5C01C12CD12CA416B506C606D70636
:1009C00028F48D91FD0132978083F0CF5401A40C5F
:1009D000B51CB8016A0D7B1DFB0131971082C40163
:1009E0000197800F911FF70197838683CE010196AF
:1009F0000E94F70395012C5F3F4F89819A81AB815B
:100A0000BC812901032E000C66087708480E591E88
:100A10006A1E7B1EF5013396E00FF11FA9014A0102
:100A2000A12CB12C84149504A604B70428F4618188
:100A300061934F5F5F4FF3CF820F931FF801E80F71
:100A4000F91FDF0111971C9221503109020F131F6A
:100A5000D70119961C930E9318972181428150E07B
:100A600060E070E0BA0155274427522B2081422BC9
:100A70002381722BF7014287538764877587049619
:100A80002C96E0E10C94C213A0E1B0E0EAE4F5E0BA
:100A90000C94A4138C016B01DB018D909D90AD90A3
:100AA000BC90FC0182819381A481B5818815990550
:100AB000AA05BB0570F4B401660F771F660F771F98
:100AC000828593850E94E510D8011B969C938E9396
:100AD0001A97F80182829382A482B5829601812CB2
:100AE000912C540144E050E0B8016A5F7F4F2C5FC5
:100AF0003F4FF80182819381A481B581FA01349638
:100B00001F0188169906AA06BB0650F5D901119651
:100B1000FC90119712968C9190E0A0E0B0E0DC017F
:100B2000992788279F29F901F0808F29F380BF2911
:100B3000F80186839783A087B187DA01A101149712
:100B400082859385A80FB91F84E0FB0101900D9267
:100B50008A95E1F7FFEF8F1A9F0AAF0ABF0AC7CF46
:100B60004601840E951ED4018C9111969C9111978B
:100B700012964C901297512C612C712C32015524F5
:100B80004424592A482A13968C91782A5F01F80147
:100B900084859585A685B78584159505A605B70531
:100BA00070F4B201660F771F660F771F84899589ED
:100BB0000E94E510D80155969C938E935497F801A6
:100BC0004486558666867786C401412C512C3201B5
:100BD0009801205F3F4FD8011C964D915D916D911A
:100BE0007C911F97F50134964416550666067706E4
:100BF00098F5DC011596FC90159716964C91169772
:100C000050E060E070E0BA01552744275F29149650
:100C1000FC9014974F291796FC907F29D801509685
:100C20004D935D936D937C9353975F01AC0148198D
:100C3000590954960D90BC91A02DA40FB51F44E006
:100C4000F90101900D924A95E1F7BFEF4B1A5B0A4B
:100C50006B0A7B0A0496BFCFD601AA0DBB1D8C91EF
:100C600011969C91119712968C901297912CA12C11
:100C7000B12C540199248824992A882A13968C919E
:100C8000B82A7F01F80186899789A08DB18D8815D2
:100C90009905AA05BB0560F4B401660F771F848D22
:100CA000958D0E94E510D8015D969C938E935C977C
:100CB000F801868A978AA08EB18E212C312C812C46
:100CC000912C54019801265E3F4F3A872987F801FD
:100CD00086899789A08DB18D88169906AA06BB06CC
:100CE00008F05FC0B6016E0D7F1DCE0101960E9417
:100CF000F70397012C5F3F4F388B2F8749815A812B
:100D00006B817C81C901330FAA0BBB0B2C013D0108
:100D1000440E551E661E771E4B865C866D867E864B
:100D200023E0E20EF11CF601EE0DFF1D2F85388940
:100D3000C901A0E0B0E04B845C846D847E8484159E
:100D40009505A605B70528F4A181A1932F5F3F4F14
:100D5000EFCF6F847888460D571DF601E40FF51F1D
:100D600031971082C30101978C0D9D1DD8015B96B0
:100D70009C938E935A977A015C96ED91FC915D97C6
:100D8000E20DF31DA985BA858D919C919183808395
:100D9000BFEF8B1A9B0AAB0ABB0AE2E02E0E311C96
:100DA00096CFC7016096E2E10C94C013AAE0B0E0D0
:100DB000ECEDF6E00C94B2138C0180E492E09A839F
:100DC00089831B821C821D821E821F8218861986BF
:100DD0001A86D801ED91FC910190F081E02DAE01D1
:100DE0004F5F5F4F6AE070E0C80109950E940212F0
:100DF000F80160877187828793872A96E4E00C94D4
:100E0000CE134F925F926F927F92AF92BF92CF922A
:100E1000DF92EF92FF920F931F93CF93DF93CDB7A3
:100E2000DEB72E970FB6F894DEBF0FBECDBF8C0194
:100E30008CE492E09A8389831C821B828DE292E08B
:100E40009E838D8398878F839A8789871B861C86CC
:100E50001D861E86680188EBC81A8DEFD80A7801B6
:100E6000A6E8EA1AADEFFA0A98E1492E5524539400
:100E7000612C712CD601ED91FC913097A9F1848100
:100E800095819C838B83808191819E838D838281D8
:100E90009381DC01ED91FC910480F581E02D0995B1
:100EA00098878F83D601ED91FC9182819381DC013B
:100EB000ED91FC910680F781E02D09959A8789874D
:100EC0004B865C866D867E86D601ED91FC916085B1
:100ED0007185D801ED91FC910190F081E02DAE017A
:100EE0004F5F5F4FC8010995B2E0CB0ED11CCE1405
:100EF000DF0409F0BFCF6801E4E5CE1AEDEFDE0AAA
:100F000088E1482E55245394612C712CF701A0815F
:100F1000B1811097E1F112968D919C9113979C836A
:100F20008B8314968D919C9115979E838D83ED9163
:100F3000FC9111970480F581E02DCD0109959887EA
:100F40008F83D7018D919C91DC01ED91FC910680FE
:100F5000F781E02D09959A8789874B865C866D8697
:100F60007E86D801ED91FC91A080B180F70180814F
:100F70009181DC01ED91FC910280F381E02D0995D6
:100F8000AE014F5F5F4FBC01C801F5010995F2E06A
:100F9000EF0EF11CCE14DF0409F0B8CFF801EA54CB
:100FA000FD4F81E080832E960FB6F894DEBF0FBE12
:100FB000CDBFDF91CF911F910F91FF90EF90DF9008
:100FC000CF90BF90AF907F906F905F904F900895BB
:100FD000AAE0B0E0EEEEF7E00C94AA138C015B01FE
:100FE00080E492E09A8389831B821C821D821E8288
:100FF0001F82188619861A860E940212F801C08480
:10100000D184E284F3849B01AC012C193D094E0983
:101010005F0969017A01B501CE0101960E94AC0019
:1010200088EE882E83E0982EA12CB12CC701B60142
:10103000A50194010E945813CB80DC80ED80FE80D6
:10104000C20ED31EE41EF51ECB82DC82ED82FE8230
:101050009B01AC0160E472E48FE090E00E942813F1
:10106000CF80D884E984FA84DC01CB018C0D9D1DEE
:10107000AE1DBF1D8F839887A987BA870E94021271
:10108000CB80DC80ED80FE8031E0C31AD108E1081E
:10109000F108A50194010E945813C21AD30AE40A68
:1010A000F50AF801C486D586E686F786CF80D8840F
:1010B000E984FA84F6E3DF1AF5E6EF0AF4ECFF0AB6
:1010C0009B01AC0160E472E48FE090E00E94281381
:1010D000C61AD70AE80AF90AF801C08AD18AE28A50
:1010E000F38AB801605F7F4FC8010C960E94790BAC
:1010F0000E940212F801E554FD4F608371838283E0
:1011000093832A96ECE00C94C613A0E1B0E0EBE8E0
:10111000F8E00C94A413988B8F870E9402124B0165
:101120005C012F85388925543D4F3E832D83F9017D
:1011300080819181A281B381A5019401281B390B83
:101140004A0B5B0BDA01C901893F9A42A105B1053F
:1011500028F0EF85F889EA54FD4F10820F85188931
:1011600004551D4FD8018D919C91892B81F0EF85FD
:10117000F889E154FD4F80819181A281B381881566
:101180009905AA05BB0518F4F801118210826F8435
:101190007888FCE46F1AFDEF7F0A2F853889205587
:1011A0003D4F3A832983CF84D88838E1C30ED11CC0
:1011B0004F8558894A545D4F58874F838F8598894A
:1011C0008C539D4F9A878987AF85B889AD53BD4FA2
:1011D000BC87AB87EF84F888B2E5EB1ABDEFFB0A5A
:1011E000EF85F889EE54FD4FFC83EB832F8538891A
:1011F00021543D4F3E872D871401250134E1230EF4
:10120000311C411C511CEF85F88984899589A68978
:10121000B789892B8A2B8B2B89F4AF85B8891296D5
:101220008D919C911397DC01ED91FC910680F781E3
:10123000E02D09959C0197FF15C03CC10E94021248
:10124000DC01CB0188199909AA09BB09EF85F88946
:101250002489358946895789281739074A075B0742
:10126000E0F650C1D3018D919C911197820F931F8D
:101270008D939C93F8014081518147305105D9F4F9
:10128000AB81BC818D919C911197AC014F5F5F4FF9
:101290004D935C93EF85F889E80FF91F208FF701D4
:1012A00080819181019791838083892B09F0ABCF55
:1012B00088E090E06FC04115510529F52F3F3105B9
:1012C00069F481E090E0F80191838083AD85BE856B
:1012D0002D923D924D925C92139795CF0E940212EF
:1012E000DC01CB0188199909AA09BB098938934106
:1012F000A105B10508F487CF2F8538892A543D4FC1
:10130000D9011C92FFC04130510591F42E3F3105A7
:1013100019F482E090E02EC011821082EF81F885EE
:101320008081811170CF8F8598890E94D6066BCFFE
:101330004230510581F4D7012D933C93EB81FC8120
:101340001182108283E090E0D8018D939C93F30189
:101350003183208358CF4330510581F4322F222727
:10136000D7018D919C911197280F391F2D933C9394
:1013700084E090E0F8019183808345CF44305105AB
:1013800089F460E071E00E9444138F3F910531F4CD
:1013900085E090E0D8018D939C9335CFF8011182C0
:1013A000108231CF4530510569F4A981BA812D935E
:1013B0003C9346E050E0F80151834083D3012D93E4
:1013C0003C9321CF4630510599F4322F2227E981F1
:1013D000FA8180819181280F391F31832083E7E0D2
:1013E000F0E0D801ED93FC93D7018D919C915DCFF6
:1013F0004830510509F007CFF8011182108260E0F2
:1014000071E00E9444138F3F910509F0FCCEA98141
:10141000BA818D919C910097C9F48F8598890E941B
:10142000D6068F8598890E940107EF85F889E954CF
:10143000FD4F80829182A282B382ED81FE81808203
:101440009182A282B3828FEF9FEF61C08A309105B3
:1014500031F4B6018F8598890E94E807D4CE863092
:10146000910551F4B60189859A850E94440581E071
:10147000AB85BC858C93C7CE8B30910521F4EF8171
:10148000F8851082C0CEFC01E752FF4FEE0FFF1F20
:101490002F853889E20FF31F80819181009709F42D
:1014A000B2CEDC01ED91FC910190F081E02DB6010E
:1014B0000995A9CEEF85F889EA54FD4F80818823EC
:1014C00021F10F85188909541D4FF8018081918100
:1014D000A281B381A5019401281B390B4A0B5B0B38
:1014E000DA01C901853C9940A105B10570F08F85ED
:1014F00098890E94D606D8018D929D92AD92BC9299
:10150000139703C08EEF9FEF02C080E090E06096DB
:10151000E2E10C94C0138CED92E00E94850861E03A
:1015200070E080E090E00E9433120895ECEDF2E06C
:101530008CE792E09183808384EE95E093838283AD
:1015400080E091EEA0E0B0E084839583A683B7832A
:1015500010861186128613861486158616861786BF
:10156000108A118A128A138A148A158A168A178A8F
:1015700088E191E0E4EFF2E0DF019C011D9221504F
:101580003040E1F7ECE0F4E0DF019C011D922150D6
:101590003040E1F782E3E4E2F5E0DF01282F1D921D
:1015A0002A95E9F7E6E5F5E0DF011D928A95E9F76E
:1015B000109289051092880510928B0510928A0569
:1015C00010928D0510928C0510928F0510928E0549
:1015D0001092910510929005109292051092930529
:1015E0001092940510929505109296051092970509
:1015F000109298051092990510929A0510929B05E9
:1016000010929C0510929D0510929E0510929F05C8
:1016100084E692E09093A1058093A0051092A20524
:101620001092A3051092A4051092A5051092A6058C
:101630001092A7051092A8051092A9051092AB056B
:101640001092AA051092AC051092AD051092AE054D
:101650001092AF051092B0051092B1051092B2052C
:101660001092B3051092B5051092B4051092B6050C
:101670001092B7051092B8051092B9051092BB05EB
:101680001092BA051092BD051092BC0589ED92E04A
:101690000E94620C86ED92E00E94620CE8ECF2E09F
:1016A00046E852E05183408320E732E037832683C7
:1016B000118610868FE491E09387828781E090E025
:1016C000958784876EE272E075836483EAEBF2E0CB
:1016D00051834083378326831186108627E531E0C6
:1016E000338722879587848785E392E09583848377
:1016F0000895A0E0B0E0EFE7FBE00C94AE138C019E
:10170000EB01688179818A819B8120E03AEC4AE98A
:101710005BE30E945813F801C080D180E280F3801F
:10172000C20ED31EE41EF51EC082D182E282F38275
:10173000688379838A839B83CDB7DEB7E8E00C9416
:10174000CA131F920F920FB60F9211242F933F933B
:101750004F935F936F937F938F939F93AF93BF93B9
:10176000EF93FF938091BF0587FF05C0109285001E
:10177000109284001BC02091BF05022E000C330B79
:101780008091BE0590E02817390784F48091BF0549
:10179000082E000C990BFC01EE0FFF1F8E0F9F1FF0
:1017A000FC01E054FA4F808186FD15C08091BF0591
:1017B0008F5F8093BF052091BF05022E000C330B75
:1017C0008091BE0590E028173907C4F48091BF05C9
:1017D0008C3064F113C08091BF05082E000C990B6A
:1017E000FC01EE0FFF1F8E0F9F1FFC01E054FA4F0C
:1017F000808160E08F730E94F912D8CF80918400BD
:1018000090918500049680349C4918F480E49CE90A
:1018100005C0809184009091850004969093890082
:10182000809388008FEF8093BF053BC02091840098
:10183000309185008091BF05082E000C990BFC01AA
:10184000EE0FFF1F8E0F9F1FFC01E054FA4F8181A6
:101850009281820F931F90938900809388008091DA
:10186000BF05082E000C990BFC01EE0FFF1F8E0F19
:101870009F1FFC01E054FA4F808186FF12C08091C7
:10188000BF05082E000C990BFC01EE0FFF1F8E0FF9
:101890009F1FFC01E054FA4F808161E08F730E942A
:1018A000F912FF91EF91BF91AF919F918F917F912D
:1018B0006F915F914F913F912F910F900FBE0F90BD
:1018C0001F901895FC019091BE059C30A0F481E01A
:1018D000890F8093BE059083892F90E0FC01EE0F65
:1018E000FF1F8E0F9F1FFC01E054FA4F88EB9BE017
:1018F0009283818308958FEF80830895A0E0B0E004
:10190000E4E8FCE00C94AF13EC01D62E7A018901D7
:1019100088818C3008F068C061E08D2D0E94BD1276
:101920008881E82FF0E09F01220F331FE20FF31FA1
:10193000E054FA4F9D2D9F732081207CD22ED92A0E
:10194000D08220E232E02E193F0937FF02C02D5F1E
:101950003F4F3595279535952795298320E639E022
:10196000201B310B37FF02C02D5F3F4F3595279568
:10197000359527952A836CE00E9438139CE0899F57
:10198000B001112440E050E09B01240F351FF90104
:10199000EE0FFF1F2E0F3F1FF901E054FA4F908109
:1019A00096FD16C04F5F5F4F4C30510569F78111AE
:1019B0000FC01092800082E0809381001092850019
:1019C00010928400B19A80916F00826080936F00C2
:1019D000E881F0E0CF01880F991FE80FF91FE0546C
:1019E000FA4F8081806480838881CDB7DEB7E7E0DD
:1019F0000C94CB1320E639E040E252E00E947E0CCA
:101A00000895FC0190819C3088F5818128E830E0C0
:101A1000281B310987FD3395220F331F220F331FF7
:101A20006217730784F0828148E552E0481B510930
:101A300087FD5395440F551F440F551F9B014617B3
:101A400057070CF49A014FB7F894892F90E0FC01E6
:101A5000EE0FFF1F8E0F9F1FFC01E054FA4F225024
:101A60003109220F331F328321834FBF0895A0E035
:101A7000B0E0EDE3FDE00C94AC13EC01603282E0E9
:101A800078070CF03FC077FD06C0653B71052CF070
:101A900064EB70E002C060E070E0898128E830E02B
:101AA0005901A81AB10887FDB394AA0CBB1CAA0C53
:101AB000BB1C0B2C000CCC08DD08072E000C880B7F
:101AC000990B2A8108E512E0021B110927FD1395E5
:101AD000000F111F000F111F012E000C220B330BE2
:101AE0003F932F931F930F9314EBE12EF12C00E003
:101AF00010E020E030E0A9010E94830F0F900F90CA
:101B00000F900F90CE010E94010DCDB7DEB7EAE035
:101B10000C94C813FC0124853585F901E05CFF4F66
:101B200080819181329620813181821B930B8F734A
:101B300099270895DC011C96ED91FC911D97DF011A
:101B4000A05CBF4F2D913C91119712968D919C9165
:101B500011972817390739F08D919C91E80FF91FDB
:101B6000808190E008958FEF9FEF0895FC01A48598
:101B7000B585FD01E05CFF4F208131813296808187
:101B800091812817390779F080819181A80FB91FB9
:101B90008C91208131812F5F3F4F2F733327318309
:101BA000208390E008958FEF9FEF0895FC0181A1BD
:101BB000882329F0A489B5898C9186FFFBCF11A2D7
:101BC00008950F931F93CF93DF93FC01A685B785EC
:101BD0008D01005C1F4FE8018881998101968F7308
:101BE0009927AD014E5B5F4FEA01288139812817A3
:101BF0003907D1F3E80128813981A20FB31F6C9313
:101C0000A685B785A05CBF4F11969C938E93A6893D
:101C1000B7892C9181E090E0078C02C0880F991F52
:101C20000A94E2F7822B8C9381E081A30488F589E2
:101C3000E02D80818064808381E090E0DF91CF910E
:101C40001F910F91089508951F920F920FB60F9252
:101C500011242F934F935F938F939F93EF93FF9351
:101C60008091C00082FD1CC02091C60080918A0630
:101C700090918B0640918C0650918D0601968F7342
:101C800099274817590771F0E0918A06F0918B0661
:101C9000E65BF94F208390938B0680938A0602C0FF
:101CA0008091C600FF91EF919F918F915F914F912D
:101CB0002F910F900FBE0F901F90189584EE95E016
:101CC0000E948A0D892B11F00E94230E08951F9205
:101CD0000F920FB60F9211242F933F938F939F93E0
:101CE000EF93FF9320914606309147068091480676
:101CF000909149062817390731F48091C1008F7DF2
:101D00008093C10014C0E0914806F0914906EA5F53
:101D1000F94F2081809148069091490601968F7372
:101D2000992790934906809348062093C600FF9117
:101D3000EF919F918F913F912F910F900FBE0F9038
:101D40001F901895CF92DF92EF92FF92CF93DF937F
:101D5000EC016A017B014115514E6105710509F1E4
:101D6000EC89FD8981E090E008A002C0880F991FEE
:101D70000A94E2F7808360E079E08DE390E0A701C8
:101D800096010E945813DA01C9010197A109B1090E
:101D9000B695A795979587959C01211580E1380701
:101DA000A8F0EC89FD89108260E874E88EE190E08B
:101DB000A70196010E945813DA01C9010197A109F0
:101DC000B109B695A795979587959C01E889F989FA
:101DD0003083EA89FB89208319A2EE89FF8940813B
:101DE00081E090E09C010C8C02C0220F331F0A940A
:101DF000E2F7242B2083EE89FF8940819C010D8C22
:101E000002C0220F331F0A94E2F7242B2083EE89AD
:101E1000FF8940819C010E8C02C0220F331F0A945F
:101E2000E2F7242B2083EE89FF8920810F8C02C0EA
:101E3000880F991F0A94E2F7809582238083DF91AF
:101E4000CF91FF90EF90DF90CF900895E4EEF5E012
:101E50001382128288EE93E0A0E0B0E08483958341
:101E6000A683B7838EEA92E0918380838AE496E02A
:101E70009587848786E096E09787868785EC90E053
:101E8000918B808B84EC90E0938B828B80EC90E044
:101E9000958B848B81EC90E0978B868B82EC90E025
:101EA000918F808F86EC90E0938F828F84E0848F77
:101EB00083E0858F87E0868F85E0878F81E080A330
:101EC0000895A0E0B0E0E7E6FFE00C94AE136C01EB
:101ED000EB017B01E40EF51E00E010E0CE15DF05FE
:101EE00061F06991D601ED91FC910190F081E02DB6
:101EF000C6010995080F191FF1CFC801CDB7DEB78C
:101F0000E8E00C94CA134F925F926F927F92AF9267
:101F1000BF92CF92DF92EF92FF920F931F93CF93D6
:101F2000DF93CDB7DEB729013A019B01AC0124193B
:101F300035094609570989899A89AB89BC89BC0149
:101F4000CD016A197B098C099D090E942813A801FB
:101F5000970124193509460957090E947A13CA01C5
:101F6000B9016A0D7B1D8C1D9D1DDF91CF911F91C5
:101F70000F91FF90EF90DF90CF90BF90AF907F9048
:101F80006F905F904F9008950F931F93CF93DF93BF
:101F90008230910510F482E090E0E0919906F09192
:101FA0009A0620E030E0A0E0B0E0309719F14081DF
:101FB00051810281138148175907C8F0841795078A
:101FC00069F4109731F012960C93129713961C93A4
:101FD00027C00093990610939A0622C02115310557
:101FE00019F04217530718F49A01BD01EF01DF0100
:101FF000F801DBCF21153105F9F0281B390B24300E
:10200000310580F48A819B816115710521F0FB0106
:102010009383828304C090939A0680939906FE016D
:10202000329644C0FE01E20FF31F81939193225038
:102030003109398328833AC0209197063091980658
:10204000232B41F420910201309103013093980633
:10205000209397062091000130910101211531054F
:1020600041F42DB73EB74091040150910501241B66
:10207000350BE0919706F0919806E217F307A0F46C
:102080002E1B3F0B2817390778F0AC014E5F5F4FCE
:102090002417350748F04E0F5F1F50939806409362
:1020A00097068193919302C0E0E0F0E0CF01DF91C9
:1020B000CF911F910F910895CF93DF93009709F46B
:1020C00081C0FC01329713821282A0919906B091CF
:1020D0009A06109781F420813181820F931F2091FD
:1020E0009706309198062817390751F5F09398060E
:1020F000E093970667C0ED0120E030E0CE17DF07E0
:1021000040F44A815B819E0141155105F1F0EA01DD
:10211000F5CFD383C28340815181840F951FC817A7
:10212000D90759F488819981840F951F029691836C
:1021300080838A819B81938382832115310529F4D1
:10214000F0939A06E09399063DC0E901FB83EA8388
:1021500049915991C40FD51FEC17FD0761F4808197
:102160009181840F951F0296E9019983888382816A
:1021700093819B838A83E0E0F0E012968D919C919D
:102180001397009719F0FD01DC01F7CF8D919C9119
:1021900011979D012E5F3F4F820F931F209197064D
:1021A000309198062817390769F4309729F410926E
:1021B0009A061092990602C013821282B093980672
:1021C000A0939706DF91CF910895A0E0B0E0EBEEE9
:1021D000F0E10C94A813EC01009721F4CB010E94CC
:1021E000C40FB4C0FC01E60FF71F9C012250310957
:1021F000E217F30708F4A8C0D9010D911C911197BB
:1022000006171707B0F00530110508F49BC0C80188
:1022100004978617970708F495C002501109061B0A
:10222000170B019311936D937C93CF010E945C1067
:1022300089C05B01A01AB10A4C01800E911EA091C9
:102240009906B0919A06612C712CE12CF12C109713
:1022500009F446C08D919C911197A815B905B1F567
:102260006C0142E0C40ED11CCA14DB0478F14C01AD
:102270008A189B08640142E0C40ED11C1296BC90DF
:1022800012971396AC91B5E0CB16D10440F0B28210
:10229000A38391828082D9016D937C9309C00E5FE4
:1022A0001F4F800F911FF90191838083EB2DFA2F2F
:1022B000E114F10431F0D7011396FC93EE931297D9
:1022C00041C0F0939A06E09399063CC068167906DF
:1022D00008F43C017D0112960D90BC91A02DB7CF62
:1022E000809197069091980688169906E1F46616F3
:1022F0007706C8F48091000190910101009741F4A4
:102300008DB79EB74091040150910501841B950B38
:10231000E817F907C8F4F0939806E0939706F901D7
:10232000718360830FC0CB010E94C40F7C010097B2
:1023300059F0A801BE010E940414CE010E945C1055
:10234000C70104C0CE0102C080E090E0CDB7DEB787
:10235000EEE00C94C4130E9459120E94E401CEE5F1
:10236000DEE00E948B0A2097E1F30E945E0EF9CF17
:102370001F920F920FB60F9211242F933F938F93BA
:102380009F93AF93BF9380918F0690919006A091F9
:102390009106B091920630918E0623E0230F2D37DF
:1023A00020F40196A11DB11D05C026E8230F029659
:1023B000A11DB11D20938E0680938F0690939006E9
:1023C000A0939106B0939206809193069091940603
:1023D000A0919506B09196060196A11DB11D80931E
:1023E000930690939406A0939506B0939606BF919A
:1023F000AF919F918F913F912F910F900FBE0F90B2
:102400001F9018952FB7F89460918F0670919006E1
:1024100080919106909192062FBF08953FB7F8944E
:102420008091930690919406A0919506B09196069E
:1024300026B5A89B05C02F3F19F00196A11DB11D1F
:102440003FBFBA2FA92F982F8827820F911DA11D5A
:10245000B11DBC01CD0142E0660F771F881F991F97
:102460004A95D1F70895CF92DF92EF92FF92CF93E2
:10247000DF936B017C010E940E12EB01C114D104A9
:10248000E104F10479F00E940E126C1B7D0B683E92
:102490007340A0F381E0C81AD108E108F108C851DF
:1024A000DC4FECCFDF91CF91FF90EF90DF90CF909A
:1024B0000895789484B5826084BD84B5816084BDBC
:1024C00085B5826085BD85B5816085BDEEE6F0E0AD
:1024D000808181608083E1E8F0E010828081826009
:1024E0008083808181608083E0E8F0E0808181608A
:1024F0008083E1EBF0E0808184608083E0EBF0E0BA
:10250000808181608083EAE7F0E08081846080835D
:102510008081826080838081816080838081806807
:1025200080831092C1000895833081F028F48130B7
:1025300099F08230A1F008958630A9F08730B9F083
:102540008430D1F4809180008F7D03C08091800021
:102550008F7780938000089584B58F7702C084B50B
:102560008F7D84BD08958091B0008F7703C08091E6
:10257000B0008F7D8093B0000895CF93DF9390E0FB
:10258000FC01E458FF4F2491FC01E057FF4F849178
:10259000882361F190E0880F991FFC01E255FF4FFD
:1025A000C591D491FC01EC55FF4FA591B4916111F7
:1025B00009C09FB7F8948881209582238883EC9185
:1025C0002E230BC0623061F49FB7F8948881322FBC
:1025D000309583238883EC912E2B2C939FBF06C0CC
:1025E0008FB7F894E8812E2B28838FBFDF91CF918E
:1025F00008951F93CF93DF93282F30E0F901E85916
:10260000FF4F8491F901E458FF4FD491F901E0574D
:10261000FF4FC491CC23C1F0162F81110E94941258
:10262000EC2FF0E0EE0FFF1FEC55FF4FA591B4919A
:102630009FB7F894111104C08C91D095D82302C093
:10264000EC91DE2BDC939FBFDF91CF911F9108951A
:10265000DB018F939F930E949913BF91AF91A29F2B
:10266000800D911DA39F900DB29F900D1124089590
:10267000991B79E004C0991F961708F0961B881FD4
:102680007A95C9F78095089597FB072E16F4009464
:1026900007D077FD09D00E94DB1307FC05D03EF47C
:1026A000909581959F4F0895709561957F4F0895FE
:1026B000A1E21A2EAA1BBB1BFD010DC0AA1FBB1F46
:1026C000EE1FFF1FA217B307E407F50720F0A21BB8
:1026D000B30BE40BF50B661F771F881F991F1A9425
:1026E00069F760957095809590959B01AC01BD014F
:1026F000CF010895052E97FB1EF400940E949113BC
:1027000057FD07D00E94581307FC03D04EF40C94D9
:10271000911350954095309521953F4F4F4F5F4F06
:10272000089590958095709561957F4F8F4F9F4F3D
:1027300008950E94F513A59F900DB49F900DA49F3E
:10274000800D911D112408952F923F924F925F9218
:102750006F927F928F929F92AF92BF92CF92DF92B1
:10276000EF92FF920F931F93CF93DF93CDB7DEB716
:10277000CA1BDB0B0FB6F894DEBF0FBECDBF0994AA
:102780002A88398848885F846E847D848C849B8401
:10279000AA84B984C884DF80EE80FD800C811B810F
:1027A000AA81B981CE0FD11D0FB6F894DEBF0FBE3E
:1027B000CDBFED010895AA1BBB1B51E107C0AA1FA5
:1027C000BB1FA617B70710F0A61BB70B881F991FD2
:1027D0005A95A9F780959095BC01CD010895EE0F0B
:1027E000FF1F0590F491E02D0994A29FB001B39FC3
:1027F000C001A39F700D811D1124911DB29F700D0A
:10280000811D1124911D0895FB01DC0102C001907E
:0E2810000D9241505040D8F70895F894FFCF34
:10281E0000009B0680007374645F6D7367732F54A2
:10282E00696D650063643731363663373463353529
:10283E0032633331316662636332666535613762A6
:10284E006332383900726F7373657269616C5F6DD4
:10285E007367732F546F706963496E666F003061D2
:10286E0064353166383866633434383932663863E5
:10287E003130363834303737363436303035007202
:10288E006F7373657269616C5F6D7367732F4C6FD5
:10289E006700313161626437333163323539333336
:1028AE0032363163643631383362643132643632F3
:1028BE0039350039663065393862646136353938F4
:1028CE003139383664646635336166613761343068
:1028DE00653439007374645F6D7367732F55496E79
:1028EE007431360031646637396564663230386269
:1028FE0036323966653662383139323361353434C1
:10290E0035353264004D6573736167652066726F8D
:10291E006D206465766963652064726F707065649E
:10292E003A206D657373616765206C6172676572BD
:10293E00207468616E206275666665722E0073651E
:10294E0072766F3100736572766F32000000000090
:10295E008800AC00F200F500000000006C037B0460
:10296E00F800FB00000000003C032504FE000101FE
:10297E00000000006302440504010701000000008E
:10298E000A01150124012701000000005F018508DE
:10299E004A01000000002A01400144014701726F04
:1029AE007373657269616C5F6D7367732F526571B6
:1029BE0075657374506172616D0000000000E10D69
:0A29CE00610F8A0DB60D9A0DD60DAB
:00000001FF
